:020000020000FC
:100000000FEF0DBF18E01EBFF1E0E0E00491219A70
:100010002998229A2A98239A2B98249A2C98209AE5
:1000200028980EEF0AB900E007B903E008B900E02C
:100030000093C1000E94490040E050E00491000F8D
:100040000BB906B100FF17C006B101FF1BC005B315
:1000500000FFF7CF04E606BDA89A4395443689F71A
:100060004427539555B90E94730050310CF4E9CFE1
:1000700050E055B9E6CF00000E944E00309B0C9432
:100080003B0010C000000E944E00319B0C944200C7
:1000900013C005E005BD04E606BD089504E60A9513
:1000A000F1F708958395803184F4F1E0E0E0E80F02
:1000B0000491000F0BB9C5CF8A958F3F69F001E01D
:1000C000E01B0491000F0BB9BCCF80E00FE0E01BF8
:1000D0000491000F0BB9B5CF80E0F1E0E0E00491AE
:1000E000000F0BB9AECF581711F00C9421002C9BC8
:1000F0000C947D002D985527A4CF2D9A5527A1CF7C
:100100003F065B4F666D7D077F6F777C395E797147
:00000001FF
