:020000020000FC
:100000000FEF0DBF18E01EBF3F065B4F666D7D070B
:100010007F6F777C395E7971F0E0E8E0E00F049162
:10002000219A2998229A2A98239A2B98249A2C98D4
:10003000259A2D980EEF0AB900E007B903E008B938
:1000400000E00093C1000E94460040E050E006B18D
:1000500000FF0EC006B101FF12C005B300FFB9F7E3
:1000600004E606BDA89A4395443689F7442745B966
:1000700000000E944B00309B0C94380010C0000020
:100080000E944B00309B0C943F0012C005E005BD60
:1000900004E606BD089504E60A95F1F708958395F0
:1000A00080317CF471E0E70F0491000F0BB9CFCFE2
:1000B00071E0E71B8A958F3F59F00491000F0BB94F
:1000C000C6CF80E00FE0E01B0491000F0BB9BFCF5B
:0E00D00080E00FE0E00F0491000F0BB9B8CFF5
:00000001FF
