:020000020000FC
:100000000FEF0DBF18E01EBFF0E0E2ED0491219A62
:100010002998229A2A98239A2B98249A2C98259AE0
:100020002D980EEF0AB900E007B903E008B900E027
:100030000093C1000E943E0040E050E006B100FF86
:100040000FC006B101FF13C005B300FFF7CF04E6F0
:1000500006BDA89A43954A3089F7442745B9EECFA3
:1000600000000E944300309B0C94300010C0000040
:100070000E944300309B0C94370013C005E005BD7F
:1000800004E606BD089504E60A95F1F70895839500
:1000900080318CF4F0E0E2EDE80F0491000F0BB931
:1000A000CDCF8A958F3F71F0F0E0E2EDE80F04913B
:1000B000000F0BB9C3CF80E00FE0E01B0491000FED
:1000C0000BB9BCCF80E0F0E0E2ED0491000F0BB97A
:1000D000B5CF3F065B4F666D7D077F6F777C395EDE
:0200E000797134
:00000001FF
